{
  "_format": "hh-sol-artifact-1",
  "contractName": "LandRegistry",
  "sourceName": "contracts/LandRegistry.sol",
  "abi": [
    {
      "anonymous": false,
      "inputs": [
        {
          "indexed": false,
          "internalType": "uint256",
          "name": "id",
          "type": "uint256"
        },
        {
          "indexed": false,
          "internalType": "address",
          "name": "owner",
          "type": "address"
        },
        {
          "indexed": false,
          "internalType": "string",
          "name": "location",
          "type": "string"
        },
        {
          "indexed": false,
          "internalType": "string",
          "name": "ipfsHash",
          "type": "string"
        },
        {
          "indexed": false,
          "internalType": "uint256",
          "name": "timestamp",
          "type": "uint256"
        }
      ],
      "name": "LandRegistered",
      "type": "event"
    },
    {
      "anonymous": false,
      "inputs": [
        {
          "indexed": false,
          "internalType": "uint256",
          "name": "id",
          "type": "uint256"
        },
        {
          "indexed": false,
          "internalType": "address",
          "name": "from",
          "type": "address"
        },
        {
          "indexed": false,
          "internalType": "address",
          "name": "to",
          "type": "address"
        }
      ],
      "name": "LandTransferred",
      "type": "event"
    },
    {
      "inputs": [
        {
          "internalType": "uint256",
          "name": "_id",
          "type": "uint256"
        }
      ],
      "name": "getLand",
      "outputs": [
        {
          "components": [
            {
              "internalType": "uint256",
              "name": "id",
              "type": "uint256"
            },
            {
              "internalType": "address",
              "name": "owner",
              "type": "address"
            },
            {
              "internalType": "string",
              "name": "location",
              "type": "string"
            },
            {
              "internalType": "string",
              "name": "ipfsHash",
              "type": "string"
            },
            {
              "internalType": "uint256",
              "name": "timestamp",
              "type": "uint256"
            }
          ],
          "internalType": "struct LandRegistry.Land",
          "name": "",
          "type": "tuple"
        }
      ],
      "stateMutability": "view",
      "type": "function"
    },
    {
      "inputs": [],
      "name": "landCounter",
      "outputs": [
        {
          "internalType": "uint256",
          "name": "",
          "type": "uint256"
        }
      ],
      "stateMutability": "view",
      "type": "function"
    },
    {
      "inputs": [
        {
          "internalType": "uint256",
          "name": "",
          "type": "uint256"
        }
      ],
      "name": "lands",
      "outputs": [
        {
          "internalType": "uint256",
          "name": "id",
          "type": "uint256"
        },
        {
          "internalType": "address",
          "name": "owner",
          "type": "address"
        },
        {
          "internalType": "string",
          "name": "location",
          "type": "string"
        },
        {
          "internalType": "string",
          "name": "ipfsHash",
          "type": "string"
        },
        {
          "internalType": "uint256",
          "name": "timestamp",
          "type": "uint256"
        }
      ],
      "stateMutability": "view",
      "type": "function"
    },
    {
      "inputs": [
        {
          "internalType": "string",
          "name": "_location",
          "type": "string"
        },
        {
          "internalType": "string",
          "name": "_ipfsHash",
          "type": "string"
        }
      ],
      "name": "registerLand",
      "outputs": [],
      "stateMutability": "nonpayable",
      "type": "function"
    },
    {
      "inputs": [
        {
          "internalType": "uint256",
          "name": "_id",
          "type": "uint256"
        },
        {
          "internalType": "address",
          "name": "_newOwner",
          "type": "address"
        }
      ],
      "name": "transferLand",
      "outputs": [],
      "stateMutability": "nonpayable",
      "type": "function"
    }
  ],
  "bytecode": "0x6080604052348015600f57600080fd5b506110128061001f6000396000f3fe608060405234801561001057600080fd5b50600436106100575760003560e01c8063246426811461005c5780639e29ce1814610078578063c798ff7d14610096578063e261f1e5146100b2578063f02dd53f146100e6575b600080fd5b6100766004803603810190610071919061084b565b610116565b005b610080610250565b60405161008d91906108dc565b60405180910390f35b6100b060048036038101906100ab9190610981565b610256565b005b6100cc60048036038101906100c791906109c1565b61038c565b6040516100dd959493929190610a7c565b60405180910390f35b61010060048036038101906100fb91906109c1565b6104f2565b60405161010d9190610bc2565b60405180910390f35b6001600081548092919061012990610c13565b91905055506040518060a0016040528060015481526020013373ffffffffffffffffffffffffffffffffffffffff1681526020018381526020018281526020014281525060008060015481526020019081526020016000206000820151816000015560208201518160010160006101000a81548173ffffffffffffffffffffffffffffffffffffffff021916908373ffffffffffffffffffffffffffffffffffffffff16021790555060408201518160020190816101e79190610e67565b5060608201518160030190816101fd9190610e67565b50608082015181600401559050507f0c03e39d4c11aaf9930ce7c2af04a11b633e83eb79f83a279d026f663d27481960015433848442604051610244959493929190610a7c565b60405180910390a15050565b60015481565b3373ffffffffffffffffffffffffffffffffffffffff1660008084815260200190815260200160002060010160009054906101000a900473ffffffffffffffffffffffffffffffffffffffff1673ffffffffffffffffffffffffffffffffffffffff16146102f9576040517f08c379a00000000000000000000000000000000000000000000000000000000081526004016102f090610f85565b60405180910390fd5b8060008084815260200190815260200160002060010160006101000a81548173ffffffffffffffffffffffffffffffffffffffff021916908373ffffffffffffffffffffffffffffffffffffffff1602179055507f1080b2f211753e5090f26ef7ffdc6bb3e66a125c7290200d10b502160bb1f56682338360405161038093929190610fa5565b60405180910390a15050565b60006020528060005260406000206000915090508060000154908060010160009054906101000a900473ffffffffffffffffffffffffffffffffffffffff16908060020180546103db90610c8a565b80601f016020809104026020016040519081016040528092919081815260200182805461040790610c8a565b80156104545780601f1061042957610100808354040283529160200191610454565b820191906000526020600020905b81548152906001019060200180831161043757829003601f168201915b50505050509080600301805461046990610c8a565b80601f016020809104026020016040519081016040528092919081815260200182805461049590610c8a565b80156104e25780601f106104b7576101008083540402835291602001916104e2565b820191906000526020600020905b8154815290600101906020018083116104c557829003601f168201915b5050505050908060040154905085565b6104fa6106ac565b6000808381526020019081526020016000206040518060a0016040529081600082015481526020016001820160009054906101000a900473ffffffffffffffffffffffffffffffffffffffff1673ffffffffffffffffffffffffffffffffffffffff1673ffffffffffffffffffffffffffffffffffffffff16815260200160028201805461058790610c8a565b80601f01602080910402602001604051908101604052809291908181526020018280546105b390610c8a565b80156106005780601f106105d557610100808354040283529160200191610600565b820191906000526020600020905b8154815290600101906020018083116105e357829003601f168201915b5050505050815260200160038201805461061990610c8a565b80601f016020809104026020016040519081016040528092919081815260200182805461064590610c8a565b80156106925780601f1061066757610100808354040283529160200191610692565b820191906000526020600020905b81548152906001019060200180831161067557829003601f168201915b505050505081526020016004820154815250509050919050565b6040518060a0016040528060008152602001600073ffffffffffffffffffffffffffffffffffffffff1681526020016060815260200160608152602001600081525090565b6000604051905090565b600080fd5b600080fd5b600080fd5b600080fd5b6000601f19601f8301169050919050565b7f4e487b7100000000000000000000000000000000000000000000000000000000600052604160045260246000fd5b6107588261070f565b810181811067ffffffffffffffff8211171561077757610776610720565b5b80604052505050565b600061078a6106f1565b9050610796828261074f565b919050565b600067ffffffffffffffff8211156107b6576107b5610720565b5b6107bf8261070f565b9050602081019050919050565b82818337600083830152505050565b60006107ee6107e98461079b565b610780565b90508281526020810184848401111561080a5761080961070a565b5b6108158482856107cc565b509392505050565b600082601f83011261083257610831610705565b5b81356108428482602086016107db565b91505092915050565b60008060408385031215610862576108616106fb565b5b600083013567ffffffffffffffff8111156108805761087f610700565b5b61088c8582860161081d565b925050602083013567ffffffffffffffff8111156108ad576108ac610700565b5b6108b98582860161081d565b9150509250929050565b6000819050919050565b6108d6816108c3565b82525050565b60006020820190506108f160008301846108cd565b92915050565b610900816108c3565b811461090b57600080fd5b50565b60008135905061091d816108f7565b92915050565b600073ffffffffffffffffffffffffffffffffffffffff82169050919050565b600061094e82610923565b9050919050565b61095e81610943565b811461096957600080fd5b50565b60008135905061097b81610955565b92915050565b60008060408385031215610998576109976106fb565b5b60006109a68582860161090e565b92505060206109b78582860161096c565b9150509250929050565b6000602082840312156109d7576109d66106fb565b5b60006109e58482850161090e565b91505092915050565b6109f781610943565b82525050565b600081519050919050565b600082825260208201905092915050565b60005b83811015610a37578082015181840152602081019050610a1c565b60008484015250505050565b6000610a4e826109fd565b610a588185610a08565b9350610a68818560208601610a19565b610a718161070f565b840191505092915050565b600060a082019050610a9160008301886108cd565b610a9e60208301876109ee565b8181036040830152610ab08186610a43565b90508181036060830152610ac48185610a43565b9050610ad360808301846108cd565b9695505050505050565b610ae6816108c3565b82525050565b610af581610943565b82525050565b600082825260208201905092915050565b6000610b17826109fd565b610b218185610afb565b9350610b31818560208601610a19565b610b3a8161070f565b840191505092915050565b600060a083016000830151610b5d6000860182610add565b506020830151610b706020860182610aec565b5060408301518482036040860152610b888282610b0c565b91505060608301518482036060860152610ba28282610b0c565b9150506080830151610bb76080860182610add565b508091505092915050565b60006020820190508181036000830152610bdc8184610b45565b905092915050565b7f4e487b7100000000000000000000000000000000000000000000000000000000600052601160045260246000fd5b6000610c1e826108c3565b91507fffffffffffffffffffffffffffffffffffffffffffffffffffffffffffffffff8203610c5057610c4f610be4565b5b600182019050919050565b7f4e487b7100000000000000000000000000000000000000000000000000000000600052602260045260246000fd5b60006002820490506001821680610ca257607f821691505b602082108103610cb557610cb4610c5b565b5b50919050565b60008190508160005260206000209050919050565b60006020601f8301049050919050565b600082821b905092915050565b600060088302610d1d7fffffffffffffffffffffffffffffffffffffffffffffffffffffffffffffffff82610ce0565b610d278683610ce0565b95508019841693508086168417925050509392505050565b6000819050919050565b6000610d64610d5f610d5a846108c3565b610d3f565b6108c3565b9050919050565b6000819050919050565b610d7e83610d49565b610d92610d8a82610d6b565b848454610ced565b825550505050565b600090565b610da7610d9a565b610db2818484610d75565b505050565b5b81811015610dd657610dcb600082610d9f565b600181019050610db8565b5050565b601f821115610e1b57610dec81610cbb565b610df584610cd0565b81016020851015610e04578190505b610e18610e1085610cd0565b830182610db7565b50505b505050565b600082821c905092915050565b6000610e3e60001984600802610e20565b1980831691505092915050565b6000610e578383610e2d565b9150826002028217905092915050565b610e70826109fd565b67ffffffffffffffff811115610e8957610e88610720565b5b610e938254610c8a565b610e9e828285610dda565b600060209050601f831160018114610ed15760008415610ebf578287015190505b610ec98582610e4b565b865550610f31565b601f198416610edf86610cbb565b60005b82811015610f0757848901518255600182019150602085019450602081019050610ee2565b86831015610f245784890151610f20601f891682610e2d565b8355505b6001600288020188555050505b505050505050565b7f596f7520617265206e6f7420746865206f776e65720000000000000000000000600082015250565b6000610f6f601583610a08565b9150610f7a82610f39565b602082019050919050565b60006020820190508181036000830152610f9e81610f62565b9050919050565b6000606082019050610fba60008301866108cd565b610fc760208301856109ee565b610fd460408301846109ee565b94935050505056fea2646970667358221220a487c07588817cde59e99f71c30031b74cb8fdcf93d9eeb64b910ecaa48a75ad64736f6c634300081c0033",
  "linkReferences": {},
  "deployedLinkReferences": {}
}