{
  "contractName": "LandRegistry",
  "abi": [
    {
      "anonymous": false,
      "inputs": [
        {
          "indexed": false,
          "internalType": "uint256",
          "name": "id",
          "type": "uint256"
        },
        {
          "indexed": false,
          "internalType": "address",
          "name": "owner",
          "type": "address"
        },
        {
          "indexed": false,
          "internalType": "string",
          "name": "location",
          "type": "string"
        },
        {
          "indexed": false,
          "internalType": "string",
          "name": "ipfsHash",
          "type": "string"
        },
        {
          "indexed": false,
          "internalType": "uint256",
          "name": "timestamp",
          "type": "uint256"
        }
      ],
      "name": "LandRegistered",
      "type": "event"
    },
    {
      "anonymous": false,
      "inputs": [
        {
          "indexed": false,
          "internalType": "uint256",
          "name": "id",
          "type": "uint256"
        },
        {
          "indexed": false,
          "internalType": "address",
          "name": "from",
          "type": "address"
        },
        {
          "indexed": false,
          "internalType": "address",
          "name": "to",
          "type": "address"
        }
      ],
      "name": "LandTransferred",
      "type": "event"
    },
    {
      "inputs": [],
      "name": "landCounter",
      "outputs": [
        {
          "internalType": "uint256",
          "name": "",
          "type": "uint256"
        }
      ],
      "stateMutability": "view",
      "type": "function"
    },
    {
      "inputs": [
        {
          "internalType": "uint256",
          "name": "",
          "type": "uint256"
        }
      ],
      "name": "lands",
      "outputs": [
        {
          "internalType": "uint256",
          "name": "id",
          "type": "uint256"
        },
        {
          "internalType": "address",
          "name": "owner",
          "type": "address"
        },
        {
          "internalType": "string",
          "name": "location",
          "type": "string"
        },
        {
          "internalType": "string",
          "name": "ipfsHash",
          "type": "string"
        },
        {
          "internalType": "uint256",
          "name": "timestamp",
          "type": "uint256"
        }
      ],
      "stateMutability": "view",
      "type": "function"
    },
    {
      "inputs": [
        {
          "internalType": "string",
          "name": "_location",
          "type": "string"
        },
        {
          "internalType": "string",
          "name": "_ipfsHash",
          "type": "string"
        }
      ],
      "name": "registerLand",
      "outputs": [],
      "stateMutability": "nonpayable",
      "type": "function"
    },
    {
      "inputs": [
        {
          "internalType": "uint256",
          "name": "_id",
          "type": "uint256"
        },
        {
          "internalType": "address",
          "name": "_newOwner",
          "type": "address"
        }
      ],
      "name": "transferLand",
      "outputs": [],
      "stateMutability": "nonpayable",
      "type": "function"
    },
    {
      "inputs": [
        {
          "internalType": "uint256",
          "name": "_id",
          "type": "uint256"
        }
      ],
      "name": "getLand",
      "outputs": [
        {
          "components": [
            {
              "internalType": "uint256",
              "name": "id",
              "type": "uint256"
            },
            {
              "internalType": "address",
              "name": "owner",
              "type": "address"
            },
            {
              "internalType": "string",
              "name": "location",
              "type": "string"
            },
            {
              "internalType": "string",
              "name": "ipfsHash",
              "type": "string"
            },
            {
              "internalType": "uint256",
              "name": "timestamp",
              "type": "uint256"
            }
          ],
          "internalType": "struct LandRegistry.Land",
          "name": "",
          "type": "tuple"
        }
      ],
      "stateMutability": "view",
      "type": "function"
    }
  ],
  "bytecode": "0x608060405234801561000f575f80fd5b50610fa68061001d5f395ff3fe608060405234801561000f575f80fd5b5060043610610055575f3560e01c806324642681146100595780639e29ce1814610075578063c798ff7d14610093578063e261f1e5146100af578063f02dd53f146100e3575b5f80fd5b610073600480360381019061006e919061081a565b610113565b005b61007d610247565b60405161008a91906108a8565b60405180910390f35b6100ad60048036038101906100a89190610945565b61024d565b005b6100c960048036038101906100c49190610983565b61037d565b6040516100da959493929190610a37565b60405180910390f35b6100fd60048036038101906100f89190610983565b6104d9565b60405161010a9190610b76565b60405180910390f35b60015f81548092919061012590610bc3565b91905055506040518060a0016040528060015481526020013373ffffffffffffffffffffffffffffffffffffffff168152602001838152602001828152602001428152505f8060015481526020019081526020015f205f820151815f01556020820151816001015f6101000a81548173ffffffffffffffffffffffffffffffffffffffff021916908373ffffffffffffffffffffffffffffffffffffffff16021790555060408201518160020190816101de9190610e04565b5060608201518160030190816101f49190610e04565b50608082015181600401559050507f0c03e39d4c11aaf9930ce7c2af04a11b633e83eb79f83a279d026f663d2748196001543384844260405161023b959493929190610a37565b60405180910390a15050565b60015481565b3373ffffffffffffffffffffffffffffffffffffffff165f808481526020019081526020015f206001015f9054906101000a900473ffffffffffffffffffffffffffffffffffffffff1673ffffffffffffffffffffffffffffffffffffffff16146102ed576040517f08c379a00000000000000000000000000000000000000000000000000000000081526004016102e490610f1d565b60405180910390fd5b805f808481526020019081526020015f206001015f6101000a81548173ffffffffffffffffffffffffffffffffffffffff021916908373ffffffffffffffffffffffffffffffffffffffff1602179055507f1080b2f211753e5090f26ef7ffdc6bb3e66a125c7290200d10b502160bb1f56682338360405161037193929190610f3b565b60405180910390a15050565b5f602052805f5260405f205f91509050805f015490806001015f9054906101000a900473ffffffffffffffffffffffffffffffffffffffff16908060020180546103c690610c37565b80601f01602080910402602001604051908101604052809291908181526020018280546103f290610c37565b801561043d5780601f106104145761010080835404028352916020019161043d565b820191905f5260205f20905b81548152906001019060200180831161042057829003601f168201915b50505050509080600301805461045290610c37565b80601f016020809104026020016040519081016040528092919081815260200182805461047e90610c37565b80156104c95780601f106104a0576101008083540402835291602001916104c9565b820191905f5260205f20905b8154815290600101906020018083116104ac57829003601f168201915b5050505050908060040154905085565b6104e161068b565b5f808381526020019081526020015f206040518060a00160405290815f8201548152602001600182015f9054906101000a900473ffffffffffffffffffffffffffffffffffffffff1673ffffffffffffffffffffffffffffffffffffffff1673ffffffffffffffffffffffffffffffffffffffff16815260200160028201805461056a90610c37565b80601f016020809104026020016040519081016040528092919081815260200182805461059690610c37565b80156105e15780601f106105b8576101008083540402835291602001916105e1565b820191905f5260205f20905b8154815290600101906020018083116105c457829003601f168201915b505050505081526020016003820180546105fa90610c37565b80601f016020809104026020016040519081016040528092919081815260200182805461062690610c37565b80156106715780601f1061064857610100808354040283529160200191610671565b820191905f5260205f20905b81548152906001019060200180831161065457829003601f168201915b505050505081526020016004820154815250509050919050565b6040518060a001604052805f81526020015f73ffffffffffffffffffffffffffffffffffffffff16815260200160608152602001606081526020015f81525090565b5f604051905090565b5f80fd5b5f80fd5b5f80fd5b5f80fd5b5f601f19601f8301169050919050565b7f4e487b71000000000000000000000000000000000000000000000000000000005f52604160045260245ffd5b61072c826106e6565b810181811067ffffffffffffffff8211171561074b5761074a6106f6565b5b80604052505050565b5f61075d6106cd565b90506107698282610723565b919050565b5f67ffffffffffffffff821115610788576107876106f6565b5b610791826106e6565b9050602081019050919050565b828183375f83830152505050565b5f6107be6107b98461076e565b610754565b9050828152602081018484840111156107da576107d96106e2565b5b6107e584828561079e565b509392505050565b5f82601f830112610801576108006106de565b5b81356108118482602086016107ac565b91505092915050565b5f80604083850312156108305761082f6106d6565b5b5f83013567ffffffffffffffff81111561084d5761084c6106da565b5b610859858286016107ed565b925050602083013567ffffffffffffffff81111561087a576108796106da565b5b610886858286016107ed565b9150509250929050565b5f819050919050565b6108a281610890565b82525050565b5f6020820190506108bb5f830184610899565b92915050565b6108ca81610890565b81146108d4575f80fd5b50565b5f813590506108e5816108c1565b92915050565b5f73ffffffffffffffffffffffffffffffffffffffff82169050919050565b5f610914826108eb565b9050919050565b6109248161090a565b811461092e575f80fd5b50565b5f8135905061093f8161091b565b92915050565b5f806040838503121561095b5761095a6106d6565b5b5f610968858286016108d7565b925050602061097985828601610931565b9150509250929050565b5f60208284031215610998576109976106d6565b5b5f6109a5848285016108d7565b91505092915050565b6109b78161090a565b82525050565b5f81519050919050565b5f82825260208201905092915050565b5f5b838110156109f45780820151818401526020810190506109d9565b5f8484015250505050565b5f610a09826109bd565b610a1381856109c7565b9350610a238185602086016109d7565b610a2c816106e6565b840191505092915050565b5f60a082019050610a4a5f830188610899565b610a5760208301876109ae565b8181036040830152610a6981866109ff565b90508181036060830152610a7d81856109ff565b9050610a8c6080830184610899565b9695505050505050565b610a9f81610890565b82525050565b610aae8161090a565b82525050565b5f82825260208201905092915050565b5f610ace826109bd565b610ad88185610ab4565b9350610ae88185602086016109d7565b610af1816106e6565b840191505092915050565b5f60a083015f830151610b115f860182610a96565b506020830151610b246020860182610aa5565b5060408301518482036040860152610b3c8282610ac4565b91505060608301518482036060860152610b568282610ac4565b9150506080830151610b6b6080860182610a96565b508091505092915050565b5f6020820190508181035f830152610b8e8184610afc565b905092915050565b7f4e487b71000000000000000000000000000000000000000000000000000000005f52601160045260245ffd5b5f610bcd82610890565b91507fffffffffffffffffffffffffffffffffffffffffffffffffffffffffffffffff8203610bff57610bfe610b96565b5b600182019050919050565b7f4e487b71000000000000000000000000000000000000000000000000000000005f52602260045260245ffd5b5f6002820490506001821680610c4e57607f821691505b602082108103610c6157610c60610c0a565b5b50919050565b5f819050815f5260205f209050919050565b5f6020601f8301049050919050565b5f82821b905092915050565b5f60088302610cc37fffffffffffffffffffffffffffffffffffffffffffffffffffffffffffffffff82610c88565b610ccd8683610c88565b95508019841693508086168417925050509392505050565b5f819050919050565b5f610d08610d03610cfe84610890565b610ce5565b610890565b9050919050565b5f819050919050565b610d2183610cee565b610d35610d2d82610d0f565b848454610c94565b825550505050565b5f90565b610d49610d3d565b610d54818484610d18565b505050565b5b81811015610d7757610d6c5f82610d41565b600181019050610d5a565b5050565b601f821115610dbc57610d8d81610c67565b610d9684610c79565b81016020851015610da5578190505b610db9610db185610c79565b830182610d59565b50505b505050565b5f82821c905092915050565b5f610ddc5f1984600802610dc1565b1980831691505092915050565b5f610df48383610dcd565b9150826002028217905092915050565b610e0d826109bd565b67ffffffffffffffff811115610e2657610e256106f6565b5b610e308254610c37565b610e3b828285610d7b565b5f60209050601f831160018114610e6c575f8415610e5a578287015190505b610e648582610de9565b865550610ecb565b601f198416610e7a86610c67565b5f5b82811015610ea157848901518255600182019150602085019450602081019050610e7c565b86831015610ebe5784890151610eba601f891682610dcd565b8355505b6001600288020188555050505b505050505050565b7f596f7520617265206e6f7420746865206f776e657200000000000000000000005f82015250565b5f610f076015836109c7565b9150610f1282610ed3565b602082019050919050565b5f6020820190508181035f830152610f3481610efb565b9050919050565b5f606082019050610f4e5f830186610899565b610f5b60208301856109ae565b610f6860408301846109ae565b94935050505056fea2646970667358221220a6d2aa0c884b66792a0dae7bf4e9ba6f95db8fa0ec1b1e1b3634fda7136c806064736f6c63430008140033",
  "immutableReferences": {},
  "source": "// SPDX-License-Identifier: MIT\r\npragma solidity ^0.8.0;\r\n\r\ncontract LandRegistry {\r\n    struct Land {\r\n        uint id;\r\n        address owner;\r\n        string location;\r\n        string ipfsHash;\r\n        uint timestamp;\r\n    }\r\n\r\n    mapping(uint => Land) public lands;\r\n    uint public landCounter;\r\n\r\n    event LandRegistered(uint id, address owner, string location, string ipfsHash, uint timestamp);\r\n    event LandTransferred(uint id, address from, address to);\r\n\r\n    function registerLand(string memory _location, string memory _ipfsHash) public {\r\n        landCounter++;\r\n        lands[landCounter] = Land(landCounter, msg.sender, _location, _ipfsHash, block.timestamp);\r\n        emit LandRegistered(landCounter, msg.sender, _location, _ipfsHash, block.timestamp);\r\n    }\r\n\r\n    function transferLand(uint _id, address _newOwner) public {\r\n        require(lands[_id].owner == msg.sender, \"You are not the owner\");\r\n        lands[_id].owner = _newOwner;\r\n        emit LandTransferred(_id, msg.sender, _newOwner);\r\n    }\r\n\r\n    function getLand(uint _id) public view returns (Land memory) {\r\n        return lands[_id];\r\n    }\r\n}\r\n",
  "sourcePath": "C:\\Users\\Taonga Banda\\Desktop\\Land Registry using BlockChain tech\\contracts\\LandRegistry.sol",
  "compiler": {
    "name": "solc",
    "version": "0.8.20+commit.a1b79de6.Emscripten.clang"
  },
  "schemaVersion": "3.4.14",
  "updatedAt": "2025-06-23T00:22:33.669Z",
  "devdoc": {
    "kind": "dev",
    "methods": {},
    "version": 1
  },
  "userdoc": {
    "kind": "user",
    "methods": {},
    "version": 1
  }
}